:040000006F108019E4
:1000040000000000000000006F0080086F00C024A2
:1000140000000000000000000000000000000000DC
:1000240000000000000000000000000000000000CC
:100034006F004006000000006F00E00500000000B3
:100044006F0080056F0060056F0040056F0020059C
:100054006F0000056F00E0046F00C00400000000A2
:100064006F0060046F0040046F0020046F00000400
:100074006F0040056F00C003000000006F006003C4
:100084006F0040036F0020036F0000036F00E00265
:1000940001A001A001A001A001A001A001A001A054
:1000A40001A001A001A001A001A001A001A001A044
:1000B40001A001A001A001A001A001A0411106C658
:1000C400A925FDBFB7170040130700032388E702E3
:1000D400854723A4F18E73002030B717004013071F
:1000E40070052380E704130780FA2380E70423962E
:1000F400A702238007043717004083472705898B0D
:10010400EDDF835707053717004083472705898BA1
:10011400EDFF3717004083472705898BEDDF035533
:1001240007058280B7170040930670052380D70423
:10013400130780FA2380E70403C6B7041376F60D89
:10014400A385C70423800704137605022DC603C6BE
:10015400A700118A0DE22380D7042380E70403C794
:10016400A700136747002385E7009307004B0100AE
:100174000100FD17EDFFB7170040930670052380BB
:10018400D704130780FA2380E7047D892394A7000A
:100194000100010001000100238007042380D7042B
:1001A4002380E7049306100537270040A303D78074
:1001B400238007048280137605046DDE03C6A7003E
:1001C400418A0DE22380D7042380E70403C7A700F4
:1001D400136707012385E7009307007D01000100F1
:1001E400FD17EDFFB7170040930670052380D70471
:1001F400130780FA7D892380E7041365050423949B
:10020400A7000100010001000100238007042380EE
:10021400D7042380E704930630053727004079B7D5
:100224004111814601468145114506C6912AB717F9
:100234000040130770052380E704130780FA238026
:10024400E70403C76704136717002383E7042380C5
:100254000704B2404101828081460146814511452F
:100264000522B7170040130770052380E70413071E
:1002740080FA2380E7047D572396E70203C76704C7
:10028400136717002383E7042380070401A0BD47F5
:100294003305F50201007D1575FD8280411122C4EC
:1002A40026C206C6AA84014463179400B2402244BD
:1002B40092444101828005041305803E4204C13FFB
:1002C4004180DDB72303048015472303E480010044
:1002D4002302A480828083076480E3CE07FE230385
:1002E4000480828083076480E3CE07FE0345448054
:1002F400828083076480E3CE07FE2302A480828089
:10030400411126C44AC24EC006C61377F50BAD4749
:10031400AA892E8995446306F70019456537653F18
:100324008D444E854537FD59FD1463983401B24020
:10033400A24412498249410182801355090113756F
:10034400F50F453F2209CDB7011126CC06CEB704DF
:10035400080051371545BD37713769372AC6A53F9F
:1003640032459377150089EB136515001375F50F66
:10037400F240E24405618280FD14E9FC0145CDBFF1
:10038400397126DC4ADA4ED852D656D45AD25ED0C7
:1003940006DE62CE66CCB7E700E07D5783AA07008D
:1003A40022C603AA470023A0E71823A2E718B71719
:1003B4000040130770052380E704130780FA2380A5
:1003C400E70483C74704930B75FFB684E20793FBE6
:1003D400FB0F8546AA892E8B328937240040E1879A
:1003E400015763FA76016308D500894613070002B2
:1003F4006313D5000157D98F93F7F70FB71C00404B
:100404002382FC0411472303E4801305F00F5D3DB0
:10041400094CD13563697C11B70707003E9B3787C8
:1004240007007955637EEB02B3079B00636AF7020A
:10043400A9476399F90689E48144713D26850DA095
:10044400DA850945753D05090345F9FFFD14050BDA
:100454004D3581C49377FB0FFDF7FD3569FD7D555F
:10046400B7170040130770052380E704130780FAC9
:100474002380E70403C74704418B2382E704F25037
:10048400B7E700E023A0571123A24711E2543244F6
:100494005259C259325AA25A125B825B724CE24CD4
:1004A40021618280A5476395F90685691309F00FD8
:1004B400B3069900B3742B01B6941349F9FFB374CE
:1004C4009900856B33796901416B9387F9FFB3F721
:1004D400270199E363FC340193D94900C147E3E65A
:1004E40037FF99BF0569C1697D19D9B71305800D17
:1004F40063886901130500026384790113051008F8
:10050400CA85FD3B913521DD4E99B3843441D9B779
:10051400DA852D45F533CA94E30099F20509D933F8
:10052400A30FA9FED5BF9387F9FF93F7F70F636C69
:10053400FC0803C75C04B70708001377070219E334
:10054400B78707007955E37DFBF033079B00E3E9A8
:10055400E7F089476390F9048980D549E38E04EC78
:10056400DA850945713B11090327C9FF9147232007
:10057400E48003076480E34E07FE23033481FD1700
:10058400EDFBFD14110B81C49377FB0FE9FF6D3B69
:1005940071F5F1B58547E387F9F4DA852D458D3397
:1005A4009389F4FFE38A04E8353B93F7390091EB30
:1005B400832604800327090093074900E39FE6E6A6
:1005C4003E89CE84F1BFB5476396F9001305900BBD
:1005D400D5399DB5B1471305B00AE38BF9FE9947A8
:1005E400639EF902DA852D45213B81448D4BA14957
:1005F400D53963967401832704802320F900850488
:10060400E39834FF8327048013172B0163550700F5
:100614002312F90015B52322F90039BD9D476399CA
:10062400F90281451305B004E139BD4423200900D2
:1006340023220900FD597D3193F77400CA9703C73B
:100644000700FD14398D2380A700E39634FFEDB332
:10065400A1476392F904CD398144630D0B008D47A2
:100664009304C0036308FB009304000563048B0137
:10067400930440041375C507E30095DC19459931CB
:100684009939054581312685AD3109459D316D394D
:10069400E31405DAE9B391476399F9001305600699
:1006A400153115391305900925B7E38709D8F15495
:1006B40069B309CDB7170040130770052380E70419
:1006C400130780FA2380E7042396A702828019C1C6
:1006D400814799E982803387F50083460700330711
:1006E400F50085072300D700E397C7FEE5B719C1D6
:1006F400FD5781E98280910503A7C5FF1105232ECB
:10070400E5FE7D16E319F6FEF5B7797122D41734A8
:100714000000130424A21C4006D626D24AD04ECE92
:1007240091C782979737000023A607A05C4089CB26
:1007340003D5818FBD3F5C40829703D5A18F953F40
:100744001C40639907189737000083C737B1858B1E
:1007540095C797370000A38307B0173700000347F6
:1007640017B0914763FCE7005D2B9737000083C700
:1007740017AFF9178A07A2979C438297973700000F
:1007840083C787B2918B89C7971001E0E780009EE9
:100794001C4491C382979387418F98431736000076
:1007A400034616973E8997340000938464969737DE
:1007B400000083C7E79593961700BA9683D6060080
:1007C400638006109737000083C7879463F2C708D5
:1007D40086073E97835507002310070003D5818FB2
:1007E4002EC623900190F1359387C1909C43173511
:1007F40000000345E59113172500BA979C43B245C1
:100804008297AA8903D5A18F6D359737000083C7D6
:100814002790139717008327090003D501901345E8
:10082400F5FFBA9703D7070033753501598D239027
:10083400A70083C70400850793F7F70F1737000055
:100844002308F78C173700000347978C63E6E7000B
:1008540097370000238E078A1C40ADEF93874190A1
:1008640098433E8425CB9737000083C7979F91CB4D
:100874009737000083C7B79E89E7970001E0E780B8
:10088400A03F1C4082972A8431C59C48AA971737F9
:1008940000002327F788938781909C4385CF03D555
:1008A400818F013D228597F0FFDFE780005D2254B0
:1008B400B25092540259F24903D5A18F4561D5BB78
:1008C400850793F7F70F973600002383F684E3E058
:1008D400C7EECDBDB250225492540259F24945613B
:1008E40082809167B7C600409387373023A6F620ED
:1008F4000F1000009737000093878781884F9387F4
:10090400019F9C43316713073730F053B70710003A
:10091400FD17918F99833A0523A6E6205D8D828089
:100924004111B7170040985F3AC6945F3247E39C81
:10093400E6FE324541018280411106C6D53797262D
:10094400000083C6667A858AB1C6930730333307BD
:10095400F502B337F5023983CA07D98F1727000088
:100964001307077B584B01456303F7023385E740C0
:10097400636BF70037653D0889C637856F08130533
:100984000590198D3E9517270000232DF778B24066
:1009940041018280E5473307F502B337F502258329
:1009A400DE0765BF0327C50F8346B50097370000F0
:1009B4009387878A9C4F5843938616029582904367
:1009C400FD1693F6F60F10C3D04350C3904710C7DB
:1009D400D04750C7904B10CBD04B50CB904F10CF3B
:1009E400D04F50CF91C61307070293870702C1BFA8
:1009F40082808347E50193F7E70FF1EF2A870345E8
:100A0400F50171E9034607018346870009CA834556
:100A1400A7029727000083C7376D63E7F50093F7B4
:100A24000601C5CF814709CA834707150346F71452
:100A3400C18AA207D18F81CA834637150347471558
:100A44002207558FBA97D1CB173700001307478C6D
:100A54003847411122C406C67D548326070863F330
:100A640086003684184375FB172700000347C767C1
:100A740093168701E18663D906029387C71395838A
:100A8400172700000347E766BA9763D006041D8C56
:100A9400938701919C4382973335A400B24022444A
:100AA4001345150041018280058B9387C71209CB3A
:100AB4008A079387F7031305D007B3D7A702C9B7EB
:100AC4008607FD071305D003CDBFE372F4FC370599
:100AD400C0A82A946DBF0145828082805D7122DEA8
:100AE4001384019E3AD218403ED04ACA1C5F86C67F
:100AF40096C499839AC29EC026DC2ADA2ED832D6AE
:100B040036D442CE46CC72C876C67AC47EC2858BB1
:100B14001389C19DC1C31C5F972400009384C473CF
:100B240093F7F7F91CDF9727000083C7E77293F761
:100B340007048DC3938701919C43829797270000F4
:100B440023A4A77283C7040093F7F70B17270000A9
:100B54002304F770854717270000A301F77083C7A4
:100B6400440093F7070481EF9387019F9C43D84483
:100B7400B8D3930700FC172700002301F76E83877F
:100B8400640063D90700832709009C4317270000EA
:100B94002307F76C18401C5F8583858BC9CBF557F9
:100BA4001CDF01000100010001000100010001003F
:100BB4000100010001000100010001000100010029
:100BC4000100010001000100010001000100010019
:100BD4000100010001000100010001000100010009
:100BE40001000100010001000100010001000100F9
:100BF40001000100010001000100010001000100E9
:100C040001000100010001000100010001000100D8
:100C140001000100010001000100010001000100C8
:100C240001009387019F9C4313075004B8CB1840DD
:100C34001C5F9183858B89CFBD571CDF9387019FF0
:100C44009C4323A807048547172700002308F7605F
:100C540083270900D8430583058B19C7D843759B9F
:100C6400D8C3D843799BD8C37254B640A64216431E
:100C74008643E2545255C2553256A25612578257F1
:100C84007248E2485249424EB24E224F924F61613D
:100C9400730020309387019F9443172700001307A4
:100CA400A75BBC5289CF83472700858B89EB834799
:100CB4003700858BFDD7972700002381075A828050
:100CC4009387C19E9C4399CB944BD04B9842518FB0
:100CD40098C294439C479842D98F9CC29387019FA2
:100CE4009C4337C700401306C003A8CB93062003D8
:100CF400972500009385455683278720C18393F762
:100D0400F7036369F60083278720C18393F7F7030A
:100D140063E6F60083C74500858BF9DF82809387FD
:100D2400019F94431727000013070753BC5289CB34
:100D340083470700858B91CB9727000023800752B8
:100D440097270000A38C0750828083471700858B68
:100D5400F1DFDDB79387C19E9C4399CB944BD04B75
:100D64009842518F98C294439C479842D98F9CC211
:100D74009387019F944337C70040C145A8CA65467D
:100D840083278720C18393F7F70363FBF500832749
:100D94008720C18393F7F7036364F600BC52EDF335
:100DA40082801387019E1843AA87185F1583058BD9
:100DB40025EF0345150015051377C51F19C6B3861E
:100DC400E70083C626002300D60095C597260000B9
:100DD40083C6E64893F606040945A1CAB386E7002C
:100DE40083C63600054693F5F6066390C504E2060D
:100DF400E18663CC06023385E70083471500034789
:100E04000500A20793F70770D98F13970701418351
:100E14009376074099C6136707802394E19E0145A2
:100E240082802394F19EE5BF05458280011136C876
:100E34009386019F2ECC8C423AC63EC498452ACE56
:100E440032CA9317070142C2C1831378172036852B
:100E54003E86972600009386264063040804137791
:100E6400072061CF03C72600136717001728000067
:100E74002305E83E13070019B8D1130700F8972596
:100E84000000238DE53C1387019E0C4337080010B6
:100E9400D855719B13672700D8D59841336707014C
:100EA40098C11377261005C31376061045CA03C7E5
:100EB40006001367170017260000230FE6381727CC
:100EC4000000231F073883C6460093C7F7FFC207F5
:100ED400E206E186C183184163D1060293961701A5
:100EE40063D7060830538D4663E9C6008546172646
:100EF40000002305D6363453FDFE97260000938662
:100F0400661D8386460163DD060093960701C1864C
:100F140063D506067053894663E4C6007453FDFE28
:100F240014477245E245F58F1CC75246C246324704
:100F3400A247124805617300203003C716001367E7
:100F4400170097250000A389E53017270000230721
:100F540007301727000023150730A1B703C7360051
:100F64001367170017260000A309E62E89BF8546DC
:100F7400172600002304D62E49B7544713960601BA
:100F840063510602B7061000FD1674D397260000BD
:100F940093860618944E8506172600002326D61835
:100FA40041B7A166D58FADBF172700001307872C63
:100FB4008346B7019727000083C7172FB69793F787
:100FC400F70FFD4663EAF6044C4B97260000A38313
:100FD400F62A9727000083C7F72905473317F70038
:100FE40097260000A382F62C6D8F1DEF9726000034
:100FF40083C6D62BB3F6D70213050002814733D636
:10100400F500058A13F8F70F09CE6399E6009727D0
:101014000000A3810727828081177DB70507137716
:10102400F70F8507E39DA7FC82809387819F9843F0
:10103400B75702009387279F832607091396560004
:101044006358060083260709139666006344060066
:10105400FD17FDF3828051C9AA870145C9C98D07CF
:10106400C207C183F19BC207C18313074003636BAB
:10107400F7021387C1A80843138741A81443639652
:10108400A602172700001307E704185B014525C3D0
:101094004111C20706C60545DD8D0297B2400145E0
:1010A40041018280138781A8F9B70357650005EFD2
:1010B400035745006369F702B306F740214663709E
:1010C400D6021041938687001D8FAA96611790C29D
:1010D4002392E6002393060014C12312F500231380
:1010E400B50021058280084159BF01458280828074
:1010F40001CD9387C1A803A80700938741A88C4317
:101104000147C28763E3B70082809443636FF506A7
:1011140063EDA60613868700E368C5FE03D5670062
:10112400216605066317C50003C6019A05062380D8
:10113400C19A2393070063840703138681A810428E
:10114400630FF6000356670019EA83D7470014C3F8
:1011540083564700B697A1072312F700BA8798432E
:10116400E304B7FA938681A89442E30FD7F8835631
:101174006700D9FA83D64700035647001843A106EF
:10118400B2962392D70098C382803E87B6879DBFCC
:10119800974100209381814317710020130101E6D4
:1011A80013054000972500209385456517360020D4
:1011B8001306C67D63FAC5008322050023A05500E7
:1011C80011059105E3EAC5FE17D5010013050524AD
:1011D800973500209385857B1386818763FAC50040
:1011E8008322050023A0550011059105E3EAC5FEF9
:1011F80013858187976500209385059C6377B500E3
:10120800232005001105E36DB5FE9302800873A045
:101218000230972200209382625E93E2120073905C
:1012280052309702000093828260739012347300E8
:1012380020303D432A876373C3029377F700BDEFDD
:10124800ADE5937606FF3D8ABA960CC34CC30CC72E
:101258004CC74107E36BD7FE11E28280B306C34057
:101268008A069702000096966780A6002307B700B3
:10127800A306B7002306B700A305B7002305B700E8
:10128800A304B7002304B700A303B7002303B700E0
:10129800A302B7002302B700A301B7002301B700D8
:1012A800A300B7002300B700828093F5F50F93964B
:1012B8008500D58D93960501D58D61B79396270046
:1012C8009702000096968682E78086FA9680C11774
:1012D8001D8F3E96E374C3F8A5B7371700408327E0
:1012E800870C411106C693E707082324F70C8D45A0
:1012F80013050008EF10105641458545EF1090552D
:10130800EF10F069B24071651305052041016F10B7
:1013180010662A86B305B04017C501001305854538
:101328006FA0914D797106D622D401C9894663020E
:10133800D502B2502254456182806800973000205F
:10134800E780A0B817C501001305C54FEFA0715C71
:10135800CDB702C602C802CA02CC02CED1462E8739
:10136800328463F3C600514442044180BA85228620
:10137800680097300020E78040B517C501001305C5
:10138800254EEFA01159A2856800EF00F02455B74B
:1013980083D781886390A7022395B1882396C18853
:1013A8002397D1882E8617C501001305A53ABE8557
:1013B8006FA0914417C501001305453B6FA07155F7
:1013C80041119397050122C406C626C2C1872E84FF
:1013D80063D6070403C54180EF101068AA8405C9C5
:1013E800034705009307000B6310F7020347450006
:1013F8009307F007631AF7008355850017C50100A6
:1014080013050534EFA0513F2685EF10505E216586
:10141800218DB240224492444101828093F7150005
:1014280091CF17360020130666569385018803C5A9
:101438004180EF70D12113451400E1BF93F72500D7
:1014480013C52500F9F793F7850085C383C7418045
:1014580013074006814613064006994503D581883F
:10146800EF705118134584006DB793F74500014597
:10147800CDD303D58188EF7031700566130606C891
:10148800914503C54180EF20402E1345440051B7D4
:1014980003574500011106CE83D781886311F704ED
:1014A800C167F917894503C5418023A4F18823A69C
:1014B8000188EF202042914503C54180EF208041FB
:1014C800EF00701085471306F1008545130550306D
:1014D800A307F100EF709144F2400561828017C5BF
:1014E80001001305A528EFA0D142FDB77D1595474A
:1014F80063E0A71617C70100130747220A053A95A4
:101508001C41411122C406C6BA972E84828717C58A
:1015180001001305A5272244B24041016FA0713F85
:1015280083C7250019476391E7022E8595378345C0
:10153800640017C5010013056526EFA0F12B17C538
:10154800010013056527C1BF0D47E38AE7FEB240D6
:1015580022444101828003C725009547E319F7FE1D
:10156800C16703D78188F91703D5A500630FF70072
:10157800EF70D16017C5010013050525EFA071397B
:1015880017C501001305C52679B72394A18883D709
:10159800E5000966130606902395F18883D70501AF
:1015A80003C541802396F18883D72501A145239758
:1015B800F188EF20801B0566130606C8914503C510
:1015C8004180EF20801A8355A4000356E40017C514
:1015D80001001305A520EFA031228355E40003552F
:1015E800A400EF00207C69BF03C725008D4717C5FD
:1015F80001001305A520E31CF7F431BF83C52500BE
:1016080091476397F50017C501001305A52021B779
:101618009947639FF5002285A53D8345640017C55A
:1016280001001305A5172244B24041016FA0D11C47
:101638009547639AF50083471400F1F717C5010031
:101648001305051FC9BD17C501001305E51EE1BF38
:1016580082803971170500001305C5D606DE22DC25
:10166800EF2060482382A18085472308F10099472D
:10167800231AF100854593074006100813055030DA
:10168800231EF100EF70912985679387B790239403
:10169800F1AA138781AA814797C501009385850917
:1016A800A9463386B7000346060085070507A30049
:1016B800C700E398D7FEB71706009387572023AAD9
:1016C800F1AAB707020A9387470623ACF1AA238E2B
:1016D80001AAD547138681AAD545130570302388FA
:1016E800F188EF70B123138681809D451305603022
:1016F800EF70D1225008894513051031EF7011227F
:101708007008894513052031EF70512117360020E4
:1017180013068628D5450145EF5030259305000569
:101728000D45EF30D06D930500051145EF30306D54
:101738000544700891451305704023048100230671
:1017480081002308810002CE230A0100EF60416E68
:101758003000854513050040EF60816D70008545B8
:1017680013051040EF60C16C5008854513052040F3
:10177800EF60016C1008854513055040EF60416B20
:101788007D55EF50702C7D55EF701070EF001035BF
:101798007D55EF00305089472306F10002CE8D4772
:1017A800230EF10091472308F1009387018798439E
:1017B80083C747003000854501453ACA230CF1002C
:1017C8002304810002D002D202D402D6EF00705264
:1017D800700085450545EF00D0517008D145094591
:1017E800EF003051100885450D45EF009050500826
:1017F80095451145EF00F04FC167F91717350020DF
:101808001305C55C23A4F18823A60188EF00904D39
:1018180013858187EF50E17B854503C54180EF1033
:101828007062F25062542161828041111305800474
:1018380006C697200020E780A00E453417C5010092
:101848001305C570EFA0F10C17C5010013050503BA
:10185800EFA0310CEF00106EEF108000EF705134E4
:10186800CD3B912197200020E78000050111C16739
:1018780026CA06CEAA8422CC03D50181F91763199A
:10188800F5008147F2406244D2443E85056182807A
:101898002315B1002E862E8401478146ED45EF5071
:1018A80030512AC679DD2286A68597200020E78058
:1018B800C0612C0003D50181EF00104C854779D118
:1018C800ED452800EF5090666DBF93F71500638AC9
:1018D800073C5971A6D29384818B9C40CECED2CC42
:1018E8009387470623ACF18A9387818A9C4386D6DF
:1018F800A2D4CAD0D6CA938747061307301FAE8929
:101908002A8A6361F73423A4F18AEF00100283C79F
:10191800418A2A8485C31387018A9C401843998F7A
:1019280063CA070017C50100130505282382018A29
:10193800EFA0217E83C7218199CF8347B40081EF2F
:1019480017C5010013058527EFA0A17C9C4093874C
:10195800670923A6F18A8347B4002389F180EF0041
:10196800C07C1387C18A9C40184363E2E70203479F
:10197800C500630D072C03C7418A6319072C130799
:10198800401FB3F7E7021307B0126361F72C37174C
:1019980000408327870CA166D58F2324F70C834743
:1019A800C4001307401F99E31307007D9386C1897C
:1019B8009C409442958F63E4E70CEF00007703495D
:1019C800C5008347B500AA8A3339200199C3136932
:1019D800290083C7AA0099C31369490083C7418AAC
:1019E80099C313698900414681456818EF109039F9
:1019F8001387018B93073015231EF10283470700D5
:101A0800A30F21038146230FF10283D70A003A89E5
:101A18003D472310F10483D72A002311F10483A73B
:101A28004A00BEC283D78A002314F10483C7AA00E0
:101A38002305F1048147701836960346060085068B
:101A4800B297C207C183E398E6FEA305F104C16714
:101A580003D70181F9176304F702C14568183935BE
:101A680019CD8347090085072388F18A9387418B1D
:101A78009C43850723AAF18A9C4023AEF18803473B
:101A8800C40083C7518A630C071CA1E7831684002E
:101A980017C601001306C60E63C6060017C6010066
:101AA8001306460E93D7F641BD8E9D8EA94533E7A2
:101AB800B602032844008357040017C50100130524
:101AC8006512B3C6B60297C5010093856511EFA0EC
:101AD800A1528347C400A382F18AC16703D7018159
:101AE800F9176305F708938741899C4381CB984090
:101AF8001D8F9D679387F75263FAE7065146814524
:101B08006818EF1030289307302517C7010013070E
:101B1800E71317C601001306A60C97C601009386A3
:101B2800261397C50100938525132810231EF1025B
:101B3800EFA0E15E7818814749463410BE96838647
:101B4800060099C62301D70085070507E397C7FE56
:101B5800D1456818213B19C92C1017C50100130578
:101B68006510EFA061499C4023AAF1889387818979
:101B780090409C431307703EB307F6406373F70A1F
:101B88000313840023ACC1889307803E3356F602C2
:101B980083560400035724005C4017C8010013084B
:101BA80028FE6346030017C801001308A8FD9355D3
:101BB800F3410345B40033C365003303B340A9457B
:101BC800034EA400834EC400B348B3023363B30288
:101BD80097C50100938545FB09E597C501009385E5
:101BE80025FB03CF418A17C501001305E5FA6316E3
:101BF8000F0017C501001305A5FA138F418B032F9A
:101C08000F002AC82EC67ACA76C472C21AC097C5EF
:101C180001009385E5FC17C5010013052506EFA013
:101C2800A13D52851306000A8545EF101034B650C1
:101C3800265413C5190096540659F649664AD64AD9
:101C48006561828023A4018A092EC1B1371700403B
:101C58008327C70CA166D58F2326F70C89B3E38A9F
:101C680007E68317840017C60100130666F163C6EA
:101C7800070017C601001306E6F013D7F741B98F1E
:101C8800998FA94633E7D70297C50100938545F593
:101C980017C50100130545F8B3C6D702EFA0C13533
:101CA8000DBD01458280411117C50100130545C0CE
:101CB80006C6EFA0014697C50100938565F217C5D2
:101CC8000100130525C2EFA0213397C501009385B4
:101CD80065A617C501001305A5C2EFA0E13197C697
:101CE80001009386A6C317C60100130666C397C5ED
:101CF80001009385E5F517C501001305E5C2EFA0BE
:101D0800A12F85651307803E81460546938545CEFC
:101D180017C501001305C5C3EFA0012EB14609463A
:101D2800E54517C50100130565C6EFA0E12CF94587
:101D380017C501001305C5C9EFA0012C1306401FE4
:101D48009305007D17C501001305C5CCEFA0C12A76
:101D580097C50100938545CF17C50100130585CFA9
:101D6800EFA0812917C50100130585B4EFA0613ADA
:101D78005122371700408327C70CA1668D45D58FA0
:101D88002326F70C2165EF10E02C1705000013053A
:101D980005B4EF105055B2401306000A85454101BD
:101DA8006F10B01C2398A18023AA01889387818B88
:101DB8009C432E86AA8523AEF18817C5010013051A
:101DC80025D96FA06123F9572398F18017C5010021
:101DD800130545D46FA0E133638D0510797122D4C2
:101DE80006D626D2DD472E8463F3B7005D4442044D
:101DF8004180AE842286AA85280097200020E780AB
:101E0800C00C1C10A29726862C0017C501001305CC
:101E180065C8238407FEEFA0211E83478100E5469D
:101E28001387F7F91377F70F63E5E600811793F740
:101E3800F70F130720056384E70A13074005638239
:101E4800E7081307D0046393E706056785478145CC
:101E580025452948130707E12DA01410BE960386CF
:101E680086FE930606FD93F6F60F636ED500B385DE
:101E78000503938505FDB295636FB702850793F750
:101E8800F70FE3EC87FC8DE9BD65938505A68547CB
:101E98002382F18A9387818B9C4317C50100130520
:101EA800A5C1AE9723A0F18AEFA00115B250225424
:101EB800925445618280BA859307803EB385F502C6
:101EC800F9B79387818B9C438565938585BBAE97CE
:101ED80023A6F18A17C50100130585BFF1B7992C10
:101EE80017C50100130545C12382018AEFA06122AD
:101EF80075BF828041118145216506C622C426C26C
:101F0800EF10E00A89453714004095440145EF0079
:101F18007026230C9404EF00B01C239EA18A230C86
:101F28009404854513050002EF106008175400203B
:101F380013044496228551468145EF10A0648547D5
:101F4800A305F400B240224423A0018C238F018A08
:101F5800A38F018A924441018280411122C426C282
:101F680006C6C1440144FD14EF00902593F4F40F14
:101F78002A94F5F81387C18B93574400031407007C
:101F88000567A29763C6E70E9307F7FF1757002068
:101F98002312F7900567130747CEB387E7021307A5
:101FA8004006B183B387E70233D7E702975600208C
:101FB8002393E68E9306300663F0F60C930780C1F0
:101FC800B307F702B7663200938606AAB697B3D767
:101FD800E70237470F001307F7236373F700BA8741
:101FE80017570020232AF78A371700400327470A84
:101FF800975500209385058A1583058B97560020F1
:10200800238FE68899C79449ADEE17570020232BF4
:10201800F788944901478DC21307803E958FB3878F
:10202800E70233C7D702E1776353F7006177A16707
:102038006344F7001387F7FF975700202390E7863C
:102048009387018C9C43850723A0F18C9306C003DA
:1020580063E2F606854717570020A302F7849757CF
:102068000020238F0782238F018AA38F018A4DA81E
:10207800E3DE07F0814719BFB7470F009387F723BF
:1020880085B71307803E33D7E60229463307C702D0
:1020980011E305473386D7406353C7003A863307B1
:1020A800E0406353C700328736979746002023AB3A
:1020B800E67E85B79356F74197470020A381077EB0
:1020C800B3C7E600958F1307900F9746002083C685
:1020D800267D6356F70283C7E18B6365F7008507A2
:1020E800238FF18AA38F018A85EE03C7E18B854789
:1020F80063F8E702174700202304F77A15A0A5D64E
:1021080093068007E3C3F6F683C7F18B6365F70090
:102118008507A38FF18A03C7F18B9147E3E1E7F4C1
:10212800B2402244924441018280174500201305A1
:10213800657682809747002023840776238F018A5B
:10214800A38F018A8280CC41411106C6328503C61D
:10215800150083C5050022064D8E42068D65418611
:10216800138875A2630C060F6348C804138845A238
:102178006306060B634AC800938535A26309B60651
:1021880023900600294679A0138855A26308060BF8
:10219800938565A2E316B6FEC1451D4663ECE506C8
:1021A8004546198E63F3C7003E862390C60097C53F
:1021B8000100938565B289A8138895A26300060F6C
:1021C800634E060B1388A5A2630A060F938505A51F
:1021D800E318B6FA99451D4663EEE502198E63F3D6
:1021E800C7003E862390C6009385818131A89D450E
:1021F8001D4663E1E5022146198E63F3C7003E865A
:102208002390C6009385418CBA9597200020E780DB
:10221800C0CB0146B2403285410182809D451D46B2
:10222800E3EAE5FE2146198E63F3C7003E86239054
:10223800C60097C501009385A5ADF9B7A1451D4610
:10224800E3EAE5FC2546198E63F3C7003E86239032
:10225800C60097C50100938565AC7DB7C1451D468D
:10226800E3EAE5FA4546198E63F3C7003E862390F4
:10227800C60097C50100938565A779B7C1451D4676
:10228800E3EAE5F84546198E63F3C7003E862390D6
:10229800C60097C50100938525A9BDB7AD451D4664
:1022A800E3EAE5F63146198E63F3C7003E862390CC
:1022B800C60097C501009385A5A4B9B7B5451D46C5
:1022C800E3EAE5F43946198E63F3C7003E862390A6
:1022D800C60097C501009385259F3DB79736002016
:1022E800938606804146CD45172500201305456C89
:1022F8006F70C03103C88500214513780801631247
:1023080008082D453DEF03C5050009476317E50695
:102318003285D041411106C6034716000346060020
:1023280041682207518F130628FE6308C7026369B4
:10233800E6000518630307032390060029451DA836
:10234800130648FE630BC7001518E31707FF154768
:102358003E866377F700154621A03E8691C3054661
:10236800CC452390C6004206418297200020E78092
:10237800C0B50145B2404101828023900600054561
:102388008280828083C7850093F70702E1E34111C9
:1023980006C622C426C24AC003C9050009432E88BE
:1023A8008547631B690203A345003284B6848347CB
:1023B800130003430300A207B3E767004163130E4A
:1023C80013FE6382C7030D13638B67040D6813083C
:1023D800289063850707A947B240224492440249DE
:1023E8003E8541018280AD4765FB0547B547E365FA
:1023F800D7FE0325C8000546A28597200020E78060
:10240800C0AC01499387018E9843814771D718431F
:1024180061D72686A2854A850297814775BFAD4751
:1024280045FF5147B547E369D7FA0325C800514628
:10243800A28597200020E78040A9E9B72244B2404E
:1024480092440249854741016F500060A1473E858B
:10245800828041677917630EE502411122C406C6DE
:1024680085472A84639CF50022852244B24097451B
:1024780000209385A54441016F7020248947639605
:10248800F5008545EF90004965D1B24022444101ED
:1024980082808280411122C42A84416597450020A8
:1024A8009385C5417D1506C6EF70202117050000EC
:1024B800130565FA0588EF90603D05C02244B240D7
:1024C80097260020938686734146C5451725002028
:1024D8001305C56141016F706013B2402244014584
:1024E8004101828009C523A0A18E0145828045450E
:1024F800828011476360A70897C601009386068407
:102508000A0536951841411106C63697AE87B28539
:10251800028705476145639AE70005461385C18C24
:1025280097200020E780609A0145B24041018280EF
:1025380005476145E39BE7FE05461385018DCDB749
:1025480051476145E393E7FE5146174500201305BF
:10255800A535F9B705476145E399E7FC05461385B5
:10256800418D7DBF15476145E391E7FC154613850D
:10257800818D7DB709458280411122C42E849745FB
:1025880000209385A53326C206C6AA84EF5080464C
:10259800058915C1972700209387475583D7A70B2F
:1025A800A285B2402310F4002244268592440146B5
:1025B80041016F602021B2402244924449454101C3
:1025C8008280411106C62929BD4763F3A70009295E
:1025D800BD2DBD4763F3A7009D2DB24083D5E18E85
:1025E80003D5C18E41016F104040411193962500DB
:1025F800AA852D4506C697100020E7802058B240CE
:10260800014541018280411126C29394250022C4CC
:102618004AC02A843289A686AA850146254506C667
:1026280097100020E7808055A6864A86A28529450E
:1026380097100020E7808054B24022449244024917
:10264800014541018280011122CC06CE3714004099
:1026580026CA4AC84EC652C483447405034AB40500
:102668008349840503499405052E8347A40593F4FB
:10267800F40F137AFA0F93E71700230DF40493F974
:10268800F90F1379F90FB717004003C7A705058B92
:102698006DFF03D5C705A38D4705238C3705A38C8C
:1026A8002705A38B9704F2406244D2444249B249B9
:1026B800224A0561828041119397050122C406C60A
:1026C800C1872E8463DD0700EF00103919C1EF00C0
:1026D80010322165218DB24022444101828093F756
:1026E800150013C51500E5FB9397250163D0070274
:1026F800EF10317AF93537F60200130606E08965DE
:1027080003C5418EEF1060060965E9B79397150177
:102718000145E3D207FC17B501001305E567EF9003
:10272800511F13060064916503C5418EEF10E00345
:1027380011654DB71D71494697B5010093854561EF
:1027480017C501001305858086CEEF00D06901E921
:1027580017B5010013050561EF90B11B01A037F70C
:1027680000E0F9575CC7FD571CCB8566B7E700E06A
:1027780023A0D7101306701010C3B8434146B0C346
:1027880023A0D718B8C3010001001306C003814570
:102798004808EF00305F973700209387A78F3ECA1D
:1027A800896793870780231CF100ED47A301F10295
:1027B8009307A0102312F102D1472303F102A16766
:1027C800938707E03ECE97070000938747E2BEC491
:1027D80097070000938767E3BEC685472304F10285
:1027E800B5472308F10297170000938767953EDAEB
:1027F800B7F5070097070000938727E53EDE814677
:1028080097070000938727DC7000E1051945BEC0D3
:1028180097100020E7808036580881479946700055
:102828003E960346060085070507A30AC700E398F6
:10283800D7FED24791C70357810185676373F700B5
:1028480001A04808EF10A02DAA8501C917B50100FD
:1028580013058552EF90417A01A0F64025618280E8
:10286800411117050000130545E506C622C4EF10FF
:1028780080271384418E2300A400292803450400DF
:102888002244B24037F60200130606E0896541018A
:102898006F00B06D411106C6B717004013077005E9
:1028A8002380E704130780FA2380E70403C7F702AD
:1028B8001377A70FA387E70203C7F7021367270059
:1028C800A387E702FD391305407E8147014781460A
:1028D800054685455D23B240014541016F102051F1
:1028E800B717004083C88705194703C89705A38C05
:1028F8000704238CE70403C7970593F8F80F1378A8
:10290800F80F13679702A38CE7040547238DE704A4
:10291800371700408347A7059305A705858BFDFB5F
:102928000565C14637170040054E1303F5FF2380A0
:10293800C50103C60500058A6DFE0356C705FD16C9
:10294800C2061346F6FF33766600C182B297E5F2F7
:1029580083469705A107918393F6760F13050580A3
:10296800A30CD7041D8D230C17054205A30C0705DE
:1029780041858280B717004003C777051A0592057D
:102988004D8D1377E70F13653500A38BE704137597
:10299800F50FA38CA7048280B717004003C77705FB
:1029A8001377E70FA38BE704130700F8A38DE70459
:1029B8003D47238CE70413075003A38CE704828068
:1029C8000547B7170040238DE704371700408347B2
:1029D800A705858BEDFF0355C705520551818280F8
:1029E800B717004003D587005D714EDE420541816F
:1029F80086C6A2C4A6C2CAC052DC56DA5AD85ED667
:102A080062D466D26AD06ECE9377050C130700089D
:102A180081496386E71813070004639AE714B7240B
:102A28000D8F7D8993840480B3D4A4029167938722
:102A380007E8BE94A167938707D0B3D4F402EF8068
:102A4800D16F97B701009387E7359043D443EF8060
:102A58009123EF900131AA8B939C040103D9C18E75
:102A680093DC0C0163150900056913090980B71780
:102A78000040130770052380E704130780FA2380BA
:102A8800E704B71A00400547939D0401096C2389A0
:102A9800E704514B01438145138D0A041306700561
:102AA800930680FA094893DD0D01130C0C71A948AF
:102AB8002300CD002300DD0023962A0323000D0008
:102AC80083C72A05898BEDDF83D70A0583C72A05C3
:102AD800898BEDFF83C72A05898BEDDF83D70A052C
:102AE8002396218FC207C18333859741131A0501A5
:102AF800135A0A41630B0A143307BA02635E070CC0
:102B080005034203135303016368680C63D9050A7C
:102B18003305B04093150501C185C204C18063D750
:102B2800450B0965130505713385A502B7170040E4
:102B3800130770052380E704130780FA2380E7044E
:102B480023963703238007043345950242054181C4
:102B5800B640264496440649F259625AD25A425B14
:102B6800B25B225C925C025DF24D61618280B1E3EE
:102B7800B77489097D8993840480B3C4A4029167DA
:102B8800938707E8BE94A167938707D0B3C4F4027C
:102B9800EF80B15A97B70100938747217DB597B762
:102BA80001009387A71F856483AB0700938484384B
:102BB80065B5930B0000954445B53A89D5BDB387F3
:102BC800FC40139A0701135A0A4181BF096513058E
:102BD80005713305AA028DBF3385B74163E4FC0054
:102BE8003385FD40330585033344B50363C5880049
:102BF80013150401A9BF528532C636C4EF90010AE5
:102C0800DE85EF80915AEF904103131305011353AA
:102C180003413307694042074183A24632460948C7
:102C2800A948631AE9001307190063444001130710
:102C3800F9FF420741837D1B137BFB0FCA89D285AD
:102C4800E31D0BF62396E18E65B7014511B7B7175B
:102C5800004003D5870039715ECE4205418106DE0A
:102C680022DC26DA4AD84ED652D456D25AD062CC72
:102C780066CA6AC86EC69377050C13070008814BAD
:102C88006388E71413070004639CE710B7240D8FCB
:102C98007D8993840480B3D4A4029167938707E85D
:102CA800BE94A167938707D0B3D4F402EF80F148AC
:102CB80097B701009387070F9043D443EF80A17C17
:102CC800EF90210AAA89939A040103D9E18E93DA35
:102CD8000A0163150900056913090980B71700403F
:102CE800130770052380E704130780FA2380E7049D
:102CF800139B04010547096A2389E704D14D014D57
:102D0800814C135B0B01130A0A714A859710002046
:102D1800E78060BC330C5541420C135C0C4123978F
:102D2800218F630A0C14B3079C0363D0070E050DAB
:102D3800420D135D0D01894763E9A70D63DA0C0A9B
:102D480033059041931C050193DC0C41C204C180FA
:102D580063D78C0B0965130505713385AC02B7176A
:102D68000040130770052380E704130780FA2380C7
:102D7800E704239677032380070433459502420529
:102D88004181F2506254D2544259B259225A925A4D
:102D9800025BF24B624CD24C424DB24D21618280B3
:102DA800B1E3B77489097D8993840480B3C4A4020C
:102DB8009167938707E8BE94A167938707D0B3C448
:102DC800F402EF80913797B70100938727FEEDB59E
:102DD80097B70100938787FC856483A907009384CC
:102DE8008438D5B5930900009544F1BD3E8931BFBB
:102DF8003385AA40131C0501135C0C4181BF09658A
:102E0800130505713305AC028DBF63FEAA003305B7
:102E1800654133054503A9473344650363C8870003
:102E280013150401B1BF3305AB40E5B76285EF80E8
:102E3800F166CE85EF807137EF803160131D050193
:102E4800135D0D41B307A941C207C183631AF90095
:102E580093071900634480019307F9FFC207C183F0
:102E68001387FDFF937DF70FCA8BE28CE3900DF873
:102E78002397F18E75B7014529B741112A83014E71
:102E8800930E407E130F0019930F400663EB6E0AF2
:102E98009308001913034006B3781503854E0D4FA8
:102EA800A14F337365020D891335150063E5BE0C18
:102EB8001308F6FF79467298420813580801330739
:102EC800C70213D61700BE0732976146B3F6C6028B
:102ED80013068070B386C6023697A166F58F42073F
:102EE8005D8FB717004083C6F70293F60608A3075D
:102EF800D1000346F10083C6F70293F60608E3946F
:102F0800C6FE8346F10093F6F60FF1DE93067005D0
:102F18002380D704930680FA2380D70423AA0703C3
:102F280083C6170393E60608A388D702D8DB03C72E
:102F3800170313670704A388E702238007044101E6
:102F480082807D133368E3039308E016630E08005C
:102F58003368F3039308D0166308080093783300A6
:102F680093B818009388D81633081E01131E080159
:102F7800135E0E0121BF6393E503054863860800CD
:102F88000148630303002A8871087298FD15131E0F
:102F98000801C205135E0E01C18109BF13F81500AF
:102FA80063F4BF007908D5B713381800E5BF914717
:102FB80063EEB70217B701001307C7DF8A05BA9592
:102FC8009C41BA978287B717004003A7470B134560
:102FD800F5FF698F23AAE70A03A7070B698F23A8C0
:102FE800E70A03A7070A798D23A0A70A8280B717E3
:102FF800004083A6470B1347F5FFF98E23AAD70A8B
:1030080083A6070B558D23A8A70A83A6070A758FE1
:1030180023A0E70A8280B717004003A7470B498F10
:1030280023AAE70A03A7070B1345F5FF45BFB71700
:10303800004083A6470B1347F5FF758F23AAE70ABD
:1030480003A7070A598D4DB7B717004003A7470BC9
:10305800498FEDB7914763EEB70217B70100130721
:10306800A7D68A05BA959C41BA978287B7170040B8
:1030780003A7470D1345F5FF698F23AAE70C03A79C
:10308800070D698F23A8E70C03A7070C798D23A0E8
:10309800A70C8280B717004083A6470D1347F5FF9A
:1030A800F98E23AAD70C83A6070D558D23A8A70C44
:1030B80083A6070C758F23A0E70C8280B717004002
:1030C80003A7470D498F23AAE70C03A7070D13454C
:1030D800F5FF45BFB717004083A6470D1347F5FF17
:1030E800758F23AAE70C03A7070C598D4DB7B7179F
:1030F800004003A7470D498FEDB7B717004003D528
:103108008700420541819377050491EB9377F50198
:103118003755E801130505803345F502828093771A
:10312800050C130700046397E7009377F50137450B
:103138009C1CCDB72165130505D08280B7F700E048
:10314800C8439C478280814737370040A14663C403
:10315800C700328582800345B700E38EA6FE33851B
:10316800F5000345050085072304A700CDB74111E5
:1031780022C406C62A8451372947B307E502B2405C
:103188008D83B3D7870222449507B3D7E702373731
:103198000040C207C1832316F70041018280716590
:1031A80041111305052006C6D937B7370040130764
:1031B80070F82381E7000D47A381E7001307000497
:1031C800A380E70005472387E700B24041018280DA
:1031D80023AC05FE1C4191E7010001000CC182806F
:1031E800BA8703A787FF6DFF23ACB7FE82801DC196
:1031F8008346E5FF1307F00F9147639EE6004111F0
:1032080006C697100020E780606EB24081473E8571
:103218004101828095473E85828001E9014582808F
:103228000145B240224441018280411122C42A84CE
:10323800210542059305D004418106C69710002058
:10324800E780206171DDFD572320050023128500EA
:103258002303F5002105F1B71387018F1C434111A2
:1032680022C426C24AC006C601440149BA8489E775
:10327800A1658D250DC401A803C7E7FF6318A70240
:103288001DC8A165C1269840832784FF6317E402FF
:1032980023A8F18EFD57232C04FE230FF4FE22856C
:1032A800B2402244924402494101828011E03E89A1
:1032B80083A787FF6DBF3E84E5BF232CF9FED9BFE6
:1032C800A9C9411122C406C62A849737002083C79A
:1032D800B7632E856368F400193F0D45B240224458
:1032E8004101828083A785FF99E703C7E5FF93071C
:1032F800F00F6305F700E53D1545CDB7238F85FE33
:103308001385018FF13522852244B240A165410120
:1033180015AE1545828023A8018E828093878190FF
:103328009C4399E33E85828003D727006316B70044
:1033380003C70700E308A7FEDC47E5B741119397E9
:1033480005014AC006C622C426C2C1872E8963DE8B
:103358000700193711C1613D21653345A900B24005
:1033680022449244024941018280AA860145E5D956
:1033780001443D47B3578940858B95CB9387C18FCF
:103388008443BD4791E28147A2978E070545BE94C5
:1033980033158500131405019C40C840418082976D
:1033A80023A0040023A20400334524014DBF0504D3
:1033B800E312E4FC0144CDBF9737002093870751FF
:1033C8009C53411122C406C61384818295C78297F3
:1033D80023A4A1820840B74703009387D73F33054A
:1033E800F502B7A72600938737ECB24022443E95F2
:1033F80023A4A18241018280973700209387C75078
:1034080018409C4BBA9723A4F182E9B79387418F60
:1034180090439736002083C6364F814713F7F70F3E
:103428006360D70A173700200347F762914763E0C4
:10343800E70A9737002083C7A766918BC9EB01116C
:10344800680006CE22CC26CAEFC06019FD56630F6D
:10345800D50C32479737002083C7774863F3E70CCA
:10346800173700201307474A4047173700200347FC
:1034780027476305D406058B21CF51473304E4025F
:1034880063F1870A97100020E78040C9B247637349
:10349800F400A2871737002003477744998F3E9599
:1034A80097370020938787428387470163CD0702B8
:1034B800B707C0A86369F502B70740573E9525A02E
:1034C80085071397170032970357E7FF21DB8280A0
:1034D800130790023304E40205805DB76207618731
:1034E800635707001D8D19E93705C0A801A8E37BBC
:1034F800F5FE3707C0A8B307F7403E959737002079
:103508009387C73CDC53829709ED97370020938750
:1035180027549C4F99C7EF00F152EF10612BEF0031
:10352800D146F2406244D244056182809737002038
:103538009387873DDC47E386A7FE173700201307EC
:10354800E73883464701BA84858A9DC65144338447
:1035580087029737002083C79738E3F487FC9710D2
:103568000020E780A0BB9737002083C757371D8C02
:103578002295838744011DBF130490023384870278
:103588000580C1BF2A9609E582800505A30FB5FE0F
:10359800E31DC5FED5BF81473307F50003070700C4
:1035A80019E33E8582808507C5BF01112E8626CA8C
:1035B800AA84131506019305F004418122CC06CE96
:1035C80032C697100020E780C0282A8419C53246E1
:1035D800A68597100020E780408F2285F24062443C
:1035E800D2440561828081476314F60005458280D4
:1035F8003307F5008507B386F5000347070083C640
:10360800F6FFE383E6FE014582809307F6FFBE9549
:103618002A966313C5008280FD1583C7150005052A
:10362800A30FF5FEFDB7814711E9014582803307F5
:10363800F50003470700E31AB7FE8507E319F6FE0E
:10364800054582809737002083C7172C637FF500D4
:103658001387418F9317150008433E95835705003C
:10366800DD8D2310B500014582800D458280FD5710
:10367800011117370020232FF7289387819022CC38
:1036880080434EC6973900209389492426CA4AC8E0
:1036980052C456C206CE5AC02A8981444E8A973AE5
:1036A8000020938A6A26184481476374E900B307A7
:1036B800274103A749021CC409CB03A7CA0063F624
:1036C800E700173700202327F724A1E783552400B4
:1036D8009DE95C44A1E823A4F190032BC400228552
:1036E80097100020E78080205A8455FC83274A02DF
:1036F80085CF6244F240D2444249B249224A924AB2
:10370800024B056121B3034504002D3F5C4081CB8A
:103718001CC483572400D5DFA2844044F9B71C4455
:10372800CDDBC5BFDCC455BFF2406244D244424938
:10373800B249224A924A024B05618280973700209B
:1037480083C7971C6371F5021387418F9317150080
:10375800084393C5F5FF3E9583570500FD8D23105B
:10376800B500014582800D4582809737002083C7C8
:10377800B7196364F50001458280411122C426C24D
:103788004AC006C62A842E89B284493E01C504C5AA
:1037980005452DA0936504F0C205C18141459710E8
:1037A8000020E780000B0DE1973700209387071270
:1037B8009C5B81C7A285114582970145B24022448E
:1037C8009244024941018280938781909C438DE312
:1037D80023A4A19085472326050004C523112501AC
:1037E80023008500A300F5002322050055B7BA87FA
:1037F800D84775FFC8C7F9BF45C539715AD0138B6B
:10380800C18F22DC26DA4AD84ED652D45ECE66CA9A
:103818006AC86EC606DE56D262CC3689328AAE894E
:10382800AA8401445A8DB94D854BF94C03270B00E6
:10383800131C3400937AF40F62971C43A9EF13B555
:10384800FA0013451500B3978B0063F65D019307E3
:1038580014FFB397FB0093950701C1815286313756
:103868001DC983270D000145E29784C323A23701B0
:103878006304090023005901F2506254D25442599A
:10388800B259225A925A025BF24B624CD24C424DC8
:10389800B24D216182800504E31A94F92145E9BFFC
:1038A80009458280411122C426C24AC006C6AA849C
:1038B8002E8932845D3DCA852685EFF03FA609C969
:1038C80040C10145B24022449244024941018280EC
:1038D8002145CDBF411122C426C24AC006C6AA84CA
:1038E8002E89EFF0BFA32A8419C123110500973749
:1038F800002083C767016394970023902191CA85AC
:1039080026852D3D014511E01945B24022449244D7
:103918000249410182807547636BA7041387C18FF1
:103928001443411126C293143500A696944222C42A
:1039380006C6AA873A84094595C613B5F7003947DC
:10394800134515006373F700C5178545B395F50052
:10395800C205C18141371C400145A69723A0070035
:1039680023A20700B24022449244410182800945C3
:103978008280411106C6EFF07F9A09C50845B2401A
:10398800410182800145E5BFF54763EDA7049387B0
:10399800C18F9C4313173500BA979843894721C7AD
:1039A800011126CA06CE9334F50022CCB94793C438
:1039B800140063F3A700451505443314A40042041A
:1039C80041802EC62685A2856D378947324609C5AE
:1039D800A2852685593B8147F2406244D2443E8500
:1039E8000561828089473E858280239CA18E239D24
:1039F800B18E8280411106C623A2A1900295B240E1
:103A08009737002023ACA7F00145410182809947F0
:103A180063E9B7008A0597370020938727F1BE9599
:103A280088C18280411106C622C426C2EF50511EA9
:103A38007146814517350020130545EFEFF09FB417
:103A480017340020130444EC1306400222858145F4
:103A5800EFF05FB323A4019023A2019097370020D1
:103A680083C787E813D527008D8B3E958D4733058F
:103A7800F5029947930510109384C1903505137585
:103A8800F50F2301A4003305F5021305050F971060
:103A98000020E78000DC23AEA18E834724001305B5
:103AA800050F88C08A073E9523AAA18EEFF0BF862E
:103AB800692E8347140098401706000013064688AD
:103AC80093962700BA9690C293862700850793F7A6
:103AD800F70FA300D400B24022448A07BA9790C3D4
:103AE8009244410182809737002083C7F7E1173756
:103AF8000020034787E163F1E7021387C190184369
:103B08009386170017360020A300D6E09396270067
:103B1800369708C33E8582809307F00FE5BF1C41A6
:103B28006380071A41777D8FB70600208947631A9B
:103B3800D7180357450063060718411126C21946CE
:103B4800AA849305F00F590506C622C4EFF0BFAD4D
:103B580005478D476300E51617340020130404D782
:103B68001C4481CB5858994763160714185C631393
:103B780007141306C003814517350020130505D522
:103B8800EFF05FA01306C003A685173500201305C4
:103B9800E5D397000020E78040339737002083D78C
:103BA800A7D399E793070010173700202316F7D2F9
:103BB8009737002083C767D291E7854717370020DA
:103BC800230DF7D09737002083C737D191E7ED470A
:103BD80017370020A303F7D09737002083C707D0F3
:103BE80091E7954717370020230AF7CE973700202B
:103BF80083C7D7CE91E7854717370020A300F7CEB4
:103C08009737002083C7D7CD99E783470401173733
:103C18000020A307F7CC9737002083C747CC91E74C
:103C2800D14717370020230CF7CA9737002083C7DE
:103C3800C7CB95E717370020034787CA9316870134
:103C4800E1869307C00263C806009377170093B70D
:103C580017009387D702173700202308F7C897372C
:103C6800002083C7D7C795E717370020034747C702
:103C780093168701E1869307C00263C8060093770D
:103C8800170093B717009387D70217370020A308A8
:103C9800F7C483C7D40191E7894717370020A305E4
:103CA800F7C41C5491C78297973700202391A7C661
:103CB800953B8147B240224492443E85410182802F
:103CC80089473E858280011122CC06CE2A842EC6E1
:103CD800EFF08FEEB245F240818D33A5A502229513
:103CE80062441375F50F05618280011122CC06CE5E
:103CF8002A842EC6EFF04FECB245F240818D33A5F1
:103D0800A502229562444205418105618280011124
:103D180022CC06CE2A842EC6EFF00FEAB245F24036
:103D2800818D33B5A502229562440561828097375B
:103D380000209387A7B9985725C3411122C426C2EA
:103D480006C6BE84029717370020035747BC2A844B
:103D580041C7BA876373A700AA87C207C183BA8617
:103D68006373E400A286C206C182958F51476355EA
:103D7800F706DC5491C38297854717370020230D37
:103D8800F7CCEF00111197370020239287B8B24083
:103D980022449244410182809737002083C7C7CBD1
:103DA8009DE7973700209387A7CA83C797008507A1
:103DB80093F7F70F17370020A300F7CAA18B9DC709
:103DC8008547173700202319F7C86F0071129737F6
:103DD8000020A38307C8D5BF9737002083C7C7C76C
:103DE800DDD72244B24092444101C5B7828097375B
:103DF80000209387A7ADD857011122CC06CE3E8468
:103E080001C72AC60297324509CD23A8A1901705F4
:103E1800002013052532F93EF24062440145056150
:103E280082808307440163DD07009737002023A9B8
:103E380007AE970700209387872A23A8F190C1BF70
:103E4800970700209387872DCDBF011122CC173407
:103E580000201304A4A7084406CE26CA4AC801E9CC
:103E68000545F2406244D2444249056182805C586B
:103E7800E5DB185C75D77000854582971844B24712
:103E8800E300F7FE9305E004173500200355C5A4A9
:103E980097100020E780E09B173700202324A7A86D
:103EA80061D117360020035626A39305F00FEFF0D3
:103EB8006FED814417390020130909A597370020B1
:103EC80083C7A7A10326C90163C1F40232859710ED
:103ED8000020E780A0A101459737002023A407A46C
:103EE8009737002023A207A4ADBF9735002083D5BC
:103EF800A59EB38795020844185C898185043E9580
:103F080008C2029765BF411122C417340020130468
:103F1800E49B1C4426C206C64AC0973400209384FA
:103F2800A49E91EBC84C35E9B24022449244024920
:103F38000145410182801C5CF5D7DC4C99EF930563
:103F4800E004173500200355259997100020E780D5
:103F580040909737002023A7A79CC84C61D51736F7
:103F68000020035666979305F00FEFF0AFE1014983
:103F78009737002083C76796D04CE355F9FA9735F1
:103F8800002083D56595338525031C44898105095F
:103F98003E951C5C08C28297E1BF97100020E7801D
:103FA800E0949737002023AF07969737002023AD7A
:103FB80007969DBF011156C2973A0020938A0A912D
:103FC80083A78A0022CC4AC84EC606CE26CA52C447
:103FD8005AC0AA892E8432896385072203A74A0317
:103FE800630707147D476366A714973400209384FA
:103FF800A49103AAC40163170A0A9565938515E07D
:10400800173500200355458D97100020E780608400
:104018009737002023A8A7902A86630A051083A74C
:104028004A0303A58A009735002083D5E58A89814C
:10403800829783A78A0003AAC40117370020232583
:10404800F78E8947639CF908C1476312F40E9735C8
:10405800002083D56588938505FC9147B3C5F50293
:104068008A05D29503C705009307A005631DF70AC3
:1040780083C715006399370B4A85228691059700F7
:104088000020E78080E4DC4C5285639347150145A6
:10409800F2406244D2444249B249224A924A024B0F
:1040A800056182809850E38EE7F89565938525E051
:1040B800173500200355458297000020E780607976
:1040C8002A8A35C52A8683A74A0303A58A00973515
:1040D800002083D5658089818297A5B78D47639D28
:1040E800F900C1476315F4049725002083D5C57EE0
:1040F800938545FDF199B5B79147639AF90063181F
:1041080034039725002083D5257DA115E5B7C14740
:10411800639FF900A14763EC87009725002083D5AA
:10412800A57BC115C1BFDC4C52856397470D294556
:1041380085B71307F006568B6361A70A130A05FEB5
:104148001947334AEA02172700200357E778972AC6
:104158000020938A6A7B330AEA023E9A83A70A02FE
:104168006395470183A4CA019DE49305E0041725DC
:1041780000200355657697000020E780806DAA84AB
:104188005DD583274B039725002083D5E5742A86C0
:1041980089815285829791451307A0058981939754
:1041A8002500A69783C607006393E60483C6170015
:1041B800639C360385058A052286A6954A8597005D
:1041C8000020E78080D083A7CA01E38297EC268588
:1041D80097000020E78080715DBD1307E007E36862
:1041E800A7F4130A05F985B783D5270045BF83A728
:1041F800CA01E38E97F2268597000020E780006FBA
:104208003DB79727002093872770CC4F8DD19147D2
:104218009306A0058983139727002E970346070066
:10422800E317D6F003461700631C360185078A0793
:104238002286BE954A8597000020E78000C981BD87
:1042480083572700C1BF972700209387276898477F
:1042580039C79C5FA9C705476313E504411122C408
:10426800172400201304446A504C06C60DC6085093
:104278009725002083D5456689818297484C970009
:104288000020E780A0669727002023AD07689727BE
:10429800002023AB0768B24022444101828082801B
:1042A800011117270020130767624EC6832987006C
:1042B80022CC26CA4AC806CE52C456C2AA842E8424
:1042C8003289638A09201C5FBA8A99EB2945F24032
:1042D8006244D2444249B249224A924A05618280E4
:1042E8005C5BEDD7FD4763E9A70E9729002093890A
:1042F800A96183A7C901B1CB03A58A0083A70902D5
:104308006395A70689476393F408C147E310F4FC53
:10431800172500200355455C9147130505FC3345D7
:10432800F5029317250003A5C9012286CA853E9583
:104338009307A0052300F500A30095001105970039
:104348000020E78080B8014559B79305E004172598
:1043580000200355655897000020E780804F972775
:10436800002023A1A75C49F995B783A74A0303A6B0
:10437800C9019725002083D525568981829783A76F
:104388008A00172700202321F75AADBF8D47639E67
:10439800F400C147E31CF4F2172500200355C55368
:1043A800130545FD9377C5FFBDBF9147639AF40098
:1043B800E31E94F017250020035505522115DDB79B
:1043C800C147E395F4F0A147E3E287F01725002001
:1043D800035585504115F9B79307F00663EAA70618
:1043E800930705FE1947B3C7E702172700200357AD
:1043F800A74E172A0020130A2A51B387E702BE994D
:104408008327CA01A9CF83270A02639A370703259E
:10441800CA0191461308A005FD5593D72600C20787
:10442800C183139727002A9703460700631D0607D1
:10443800834817000356270063959806B306D640AD
:1044480063CF860485078A072286CA853E95C5BD3F
:104458009307E007E3ECA7E6930705F979B7930517
:10446800E004172500200355254797000020E78022
:10447800403E9727002023A7A74A51F581BD83A76F
:104488004A030326CA019725002083D5E54489817C
:104498004E8582979727002023A837498DBFA30010
:1044A800B700B2869DBFB385860017260020035645
:1044B800A6429105130606FCE3FAC5E0130634008C
:1044C8001376C60F1106B29623000701A3009700C2
:1044D8002311D70085BF972700209387E742D44F41
:1044E800BE89A1C203A5C90191461308A005FD55BF
:1044F80093D72600C207C183139727002A9703463C
:1045080007006316060583481700035627006398BB
:104518009800B306D640E3D786F2A300B700B28668
:10452800C1BF8357C700172500200345053B9305E6
:10453800E0043305F5024205418197000020E78039
:1045480040319727002023AFA73C49FD41B31726E8
:104558000020035666389725002083C50538B385A3
:10456800C502338686001106E3E2C5D681BF014540
:104578008280011106CE2EC6EF70002901C9B2450E
:10458800F2400355250005616FA0204FF2404945D0
:1045980005618280A38E0192238E019223A201924B
:1045A80023A4019223A6019223A8019223A0019299
:1045B80023AE019097270020938707393707B40067
:1045C80098C33747A000D8C3370710009306070AD7
:1045D80094C7B7065000C106D4C79306070541071C
:1045E800D8CB3707D007410798CF3707840398D32C
:1045F80037C70700130707B8D8D3416794CB93068A
:104608000701130717F8D8D7417723AE070094D7C7
:1046180098DB8280011126CAAA84214522CC06CEC5
:104628002E8432C636C43AC2EFE03FBF1DC9A24647
:1046380012473246930700FD2300F5009947A3006F
:1046480095002301F5002303D500A303E5002312F9
:10465800C500AA8522856244F240D24405616FE014
:104668003FC6F2406244D2440561828023A2A192EF
:10467800828023A4A192828023A6A192828023A86B
:10468800A1928280011122CC4AC806CE26CA2A8964
:104698000144B30489006368B400F2406244D24420
:1046A8004249056182802EC6EFE01FD193170501AC
:1046B800C183A183B2452380F4009307140093F7C4
:1046C800F70F850463F9B700CA9709042380A70088
:1046D8001374F40F7DBF3E847DBFC167172500208A
:1046E8000355252AFD176302F502411103C6819C73
:1046F8009385419306C6EF609073B240FD57172724
:1047080000202310F72841018280828009C92515DD
:104718001375F50F1335850E134515008280014575
:10472800828023800500F94763E2C708797122D4A3
:1047380026D24ECE56CA5AC806D64AD052CC5EC6E3
:104748003684B289AE8A2A8B814463FF3405B30765
:10475800940003CA0700138914001379F90F63053D
:104768000A04B3072A0163C1F904B307240183CB00
:1047780007005E85613F0DC99307FAFF2380FA00A1
:1047880063906B03130519002295B250225492547A
:104798000259F249624AD24A424BB24B4561828081
:1047A800D29493F4F40F55B70145C5B701458280FB
:1047B800411126C2AE8422C49727002023AAC71C11
:1047C8009727002023A4B71C9727002023AEA71AF9
:1047D8002A8441469305F00F26854AC006C6054936
:1047E800EFE07FE4631E25039727002093870719CE
:1047F800884BC145413D41469305F00F2285EFE0C6
:104808009FE28544631695022244972700209387E8
:10481800E716B24092440249C847C14541019DB5D7
:10482800414681452685EFE01FE0E31625FD6DBF73
:10483800414681452285EFE01FDFE30795FCB24042
:1048480022449244024941018280411122C426C275
:104858002E84AA841306000281451725002013051B
:10486800E51106C6EFE01FD297270020A38997100D
:10487800A385819CEFA0E021854719C1814749455F
:10488800B240224417270020230AF70E9244410120
:104898008280814781CD19C98547631BF50083C78D
:1048A800550093E707FCA382F50085473E85828083
:1048B80089476317F50083C7550093F7F703E5B7F2
:1048C8000D478547E314E5FE03C755001377F70343
:1048D80013670704A382E500D1BF81478DC105C1D5
:1048E80003C755009306000C85471377070C630828
:1048F800D700930600048D476303D70089473E8598
:104908008280411122C4005D06C626C21DC8AA8441
:10491800085009C597000020E78040FD485009C5A8
:1049280097000020E78080FC085409C59700002004
:10493800E780C0FB228597000020E78020FB23AC9E
:104948000402B240224492444101828009ED972733
:10495800002083C7C702172500201305A50381CBB4
:10496800138541918280172500201305A5028280B6
:10497800172500200345A5008280972700209387EC
:10498800E7FFC847828097270020938727FF884B37
:10499800828097270020938767FEDC4B88438280BC
:1049A80097270020938787FDD84B1C4385071CC396
:1049B800172500200345B5FC9307F00F6305F500A4
:1049C80091656FE03FC88280011122CC06CE2E840B
:1049D80032C6EF60B0729147B245631FF500938706
:1049E80001939C438DC303A30700630E0300228534
:1049F8006244F24005610283938781929C4381C798
:104A080003A34700DDB7F240624405450561828093
:104A1800011122CC2A840355450006CE26CA4AC86D
:104A28004EC6EF60904E35C52A89834405008349F8
:104A3800C500C13D4A85EF70F04503554400EF605D
:104A4800706783C7C193B1CB6399970483C5D1932A
:104A58002685EFF01FB219E1238E01920355440019
:104A6800EF60D0699147631FF5000357440097270B
:104A7800002083D707F16317F700FD571727002099
:104A88002311F7F0F2406244D2444249B249056129
:104A9800828081499304F00F6DB79307F00FE38F7D
:104AA800F4FA8346640003564400034524004E8705
:104AB800A685EFF03FB65DB779715EC6AA8B2E85E5
:104AC80052CC56CA5AC806D622D426D24AD04ECE7E
:104AD800AE8A328B368AEF6050436DC1045D2A89F5
:104AE800F1CC9C50614599C3130540039C5481C780
:104AF80051054205418163050A007105420541815E
:104B0800DC5081C7590542054181EFE00FF12A8445
:104B180055C561468145EFE0FFA69729002083C966
:104B2800A9E56394090083490900930700FD230060
:104B3800F400A947A30074012301F40023036401CE
:104B48008C50231254011305840191C908C471467D
:104B5800930A440397F0FF1FE780203756858C544B
:104B680091C948C45146930A450197F0FF1FE78051
:104B7800C0355685630C0A0008C87146D285930A69
:104B8800C50197F0FF1FE78040345685CC5099C582
:104B980048C8594697F0FF1FE7802033A2854E8505
:104BA800EFE00FF22254B2509254F249624AD24ACC
:104BB800424BB24B4A8502594561A1B3B2502254C7
:104BC80092540259F249624AD24A424BB24B456169
:104BD800828001114EC6AA892E854AC806CE22CCEB
:104BE80026CA2E89EF60703231C59724002083C40D
:104BF800A4D899E0834405001945EFE00FE22A8420
:104C080015C981451946EFE0FF97930700FD23007A
:104C1800F400B947A30034012301F400231224014E
:104C2800A2856244F2404249B2492685D2440561D0
:104C38006FE00FE9F2406244D2444249B24905614B
:104C4800828039715ECEAA8B2E8526DA4ED652D452
:104C580056D25AD006DE22DC4AD8AE84328BB68AC7
:104C68003A8ABE8942C6EF60502A31C92A8941452D
:104C7800EFE0AFDA2A8421C541468145EFE09F90F5
:104C880017250020034545CF19E10345090093077F
:104C980000FD2300F400BD472301F400B247A30040
:104CA80074012312940023046401A304540123050E
:104CB8004401A30534015CC4A285EFE06FE0F25023
:104CC8006254D2544259B259225A925A025BF24B58
:104CD80021618280797126D2AA8439454AD04ECE84
:104CE80006D622D42EC6B2893689EFE00FD321C169
:104CF800B2459307000D2310F500B1472A8423120B
:104D0800B5002301F500CE851905194697F0FF1F58
:104D1800E780A01B23062401A2852254B250025921
:104D2800F24913F5F40F925445616FE06FD9B25010
:104D3800225492540259F249456182801727002073
:104D48000347F7C39307F00F630DF706411126C217
:104D5800AA84394522C406C64AC0EFE00FCC2A848B
:104D680039C9930700FD2300F500A300950023012E
:104D78000500972500209385E5C10D05194697F094
:104D8800FF1FE780801417290020130929BF8357C4
:104D98008900A28517250020034575BE2315F40058
:104DA800834719002306F4002244B2409244024982
:104DB80041016FE0EFD0B2402244924402494101E0
:104DC80082808280011156C2AA8A314526CA4AC801
:104DD8004EC652C406CE22CCAE84328AB6893A89EF
:104DE800EFE0AFC329C92A842685EF6010121DCDD4
:104DF80003450500930700FD2300F4009D47A30029
:104E080054012301F40023129400231344012314B2
:104E1800340123152401A2856244F240D244424958
:104E2800B249224A924A05616FE08FC917250020CE
:104E38000345F5B4C1B7F2406244D2444249B2498D
:104E4800224A924A05618280397162CC2A8C59457E
:104E580026DA4AD84ED652D456D25AD05ECE06DE7C
:104E680022DCAE8432C636C4BA8B3E8BC28A468AEE
:104E78008359010403494104EFE02FBA35C532468E
:104E8800930700FDA2462300F5009547A301C5003E
:104E9800A30085012301F5002A8419461105A9C23A
:104EA800B68597F0FF1FE780400223066401230AB6
:104EB80024012315740123175401231844012319CD
:104EC8003401A2856254F2504259B259225A925A78
:104ED800025BF24B624C2685D25421616FE04FBED3
:104EE8008145EFE02FEAD1B7F2506254D2544259CB
:104EF800B259225A925A025BF24B624C216182806B
:104F08009727002083C7A7A78DCB4111AA851946EB
:104F18001385419106C697F0FF1FE78000FB938534
:104F2800419117250020034585A5EFF09F96B240D3
:104F38001385419141016F90903601458280172772
:104F480000200347D7A39307F00F6305F708411123
:104F580026C2AA84294522C406C6EFE00FAC2A84DB
:104F680029C1930700FD2300F500A1472301F5009F
:104F7800A300950097270020938747A083C72700A1
:104F8800938541911105A30FF5FE194697F0FF1F70
:104F9800E780A0F3A285172500200345559EEFE082
:104FA8002FB2172700200347879D8D47631FF700FF
:104FB8009387C1929C4391CB03A3870063070300A7
:104FC8002244B240924441010283B24022449244B6
:104FD80041018280172700200347679A8D47631A8B
:104FE800F7009387C1929C4389C703A38700E31DF9
:104FF80003FC8280797122D406D626D24AD04ECEBE
:1050080052CC094445C92A89035505002E8A5144C2
:10501800EF60A06FAA8459CD83C7B19CFD1793F7A1
:10502800F70F054749446377F7080347C500A147C9
:105038006314F70063100A089C5C4544A5EF91656A
:10504800938545711305C00297000020E7806080B2
:1050580088DCAA894D4439CD1306C0028145EFE0AA
:105068006FD2835709009386490036852391F9004A
:1050780071469305490036C697F0FF1FE780E0E4C4
:1050880089472380F90003C5C400B24603560900C6
:10509800611583C5819C13351500EF80D07D2A8466
:1050A80063060A00D2852685EF70F00901C42685BB
:1050B800EFF03F852285B250225492540259F249AA
:1050C800624A4561828083C7B19CFD1793F7F70F49
:1050D80005476378F708894751C6011122CC26CACB
:1050E8004AC84EC652C406CEAA89368AB2842E89C8
:1050F800EF60A0612A84D14729C9485509C597F0AE
:10510800FF1FE780A07EF1452685EFE00FCA48D44F
:10511800CD4705CD8346C40021478147639FE600FC
:10512800630D0A000347A5010356050193062501EF
:10513800AA854E85EF601079AA8703474400630F5C
:105148000900136767002302E400F2406244D24476
:105158004249B249224A3E85056182801367470069
:10516800DDB7C9473E858280E14763EBA700971703
:1051780000209387677D06053E95035505008280CC
:1051880041657D158280011122CC2A842E8526CA8C
:1051980006CEAE84EF6060570DCDB7470F009387FA
:1051A800F723094563E2870281450A854146EFE016
:1051B8006FBDA685231081000A85418023018100E7
:1051C800A3010100EF80904DF2406244D244056192
:1051D80082804945D5BFA384A19C82806F8070627C
:1051E800797152CC2A8A328522D426D24AD04ECE20
:1051F80056CA5AC85EC606D662C4AE8BB28A368B09
:10520800BA843E89C2894684EF60205015C92A8C29
:1052180063140A0213774B008347450015CF93E7C1
:1052280027012302FC008DEC631C0902639A090222
:1052380005E8ED9B2302FC00832B8C03639F0B0680
:10524800B250225492540259F249624AD24A424B0D
:10525800B24B224C45618280F59B93E70701D1B799
:1052680093E747002302FC0001CC1C484146A28575
:105278002324FC0213058C0197F0FF1FE780E0C48C
:1052880063910B02D5D80325CC0209C597F0FF1FFF
:10529800E780C065F1452685EFE02FB12326AC02F3
:1052A80061BFE30B09F80325CC0209C597F0FF1F7E
:1052B800E780C063F1454A85C5B79DC483A70B0243
:1052C80099EB916593853571714597F0FF1FE780DC
:1052D800405823A0AB0203A50B0219C57146A68549
:1052E80097F0FF1FE78060BE6388090283A74B021F
:1052F80099EB916593852571594597F0FF1FE780D4
:10530800405523A2AB0203A54B0219C55946CE85C9
:1053180097F0FF1FE78060BB1DC483A78B0299EB42
:10532800916593851571514597F0FF1FE78060528D
:1053380023A4AB0203A58B0219C55146A28597F099
:10534800FF1FE78080B82254B2509254F249B24B02
:10535800224CCA865A860259424BD6855285D24A71
:10536800624A45616FF04FF5011126CA52C406CE54
:1053780022CC4AC84EC62A8AAE84EF60003925C5B9
:10538800AA893945EFD07FE92A8431CD1719002041
:105398000349895E6314090003C909009307000DD6
:1053A8002310F400AD472301F40093856900130529
:1053B8003400194697F0FF1FE78020B193F71400D7
:1053C800858085882306F400A306940023154401EC
:1053D800A2856244F240D244B249224A4A854249EF
:1053E80005616FD0FFEDF2406244D2444249B249B0
:1053F800224A056182809387C191884301CD41117A
:1054080006C697F0FF1FE780604EB24023AE0190BA
:10541800410182808280011106CE22CC26CA4AC868
:105428002EC6EF60802E39CDB245171900200349EA
:10543800A954AA840CD56314090003490500414501
:10544800EFD0BFDD2A841DCD9307000D2310F50092
:10545800A5472301F50083C754009385640011050F
:10546800A30FF5FE194697F0FF1FE78000A69C548E
:10547800A285F2405CC46244D2444A85424905612F
:105488006FD01FE4F2406244D244424905618280F1
:10549800797122D406D62A842EC6EF6000270DCD56
:1054A8008346C5001147AA8749456393E6029C5F76
:1054B800B24599C383C567010808EF70C051978644
:1054C8000000938646DA100889452285EF6050442B
:1054D800B2502254456182805145DDBF83C7B19CDB
:1054E800FD1793F7F70F0547637AF704894721CA31
:1054F800411122C426C24AC006C6B2842E89EF6072
:10550800C0202A84D14705C56308090083474500A0
:1055180093E727002302F5004146A6851305840179
:1055280097F0FF1FE780609A9C481CD48147B240DF
:105538002244924402493E8541018280C9473E8502
:105548008280797122D406D62A842EC6EF60E01BA9
:1055580001CDB2452285230EB1006C08EF70203BC7
:10556800B2502254456182805145DDBF6F60C02E24
:10557800C1671387E7FF6394E502938781929C4391
:1055880091EB494582804945B24022449244024900
:105598004101828003A30700E30503FE0283411152
:1055A80022C426C24AC006C6FD172A892E84B284A0
:1055B8006395F502938781929C4391CB9C4381CB61
:1055C800829711E5238E2193A38E919275BFA685AC
:1055D8004A85EFE01FFA4DF9F5B72E85EF60E01226
:1055E8005DD1834705000D45E39027FB22852244C2
:1055F800B2400249A685924441016F900048614734
:105608006362A7044111416722C406C626C27D17FA
:105618002A8409456383E502C547AE846315F4000F
:105628002E85EF90404D9317140017140020130493
:10563800A431A297239097000145B2402244924496
:105648004101828009458280011106CE2AC6EFE019
:105658007FF4EF10C002EF00C074EF3071133245D1
:105668009717002093878731130700F02391E700ED
:10567800238207007D579387819CA380E7002380BE
:10568800A700F240954505616F40502A5D719397D8
:105698000501CAC086C6A2C4A6C24EDE52DC56DACE
:1056A8005AD85ED662D466D26AD0C1872E8963DDA5
:1056B800074A03C5819CEFD03FBA8964416A856A6D
:1056C800797B2A84938BD4007D1AA50A691B15E07F
:1056D80021653345A900B640264496440649F25947
:1056E800625AD25A425BB25B225C925C025D616193
:1056F8008280834704001307200A639DE70003554F
:105708002400171C0020034C9C272286D285EFF02A
:10571800AFAB3DAA1307100903CC919C6397E7161A
:10572800834714001547639EE7002285EFF04FAECC
:105738002285EFD0DFAB03C5819CEFD0FFB12A846F
:1057480079B739476399E71603554400631B550534
:105758000C4483C90500639D0900850591C9194654
:10576800171500201305052397E0FF1FE780E07554
:10577800171700200347872085476318F710638AA7
:10578800090097170020238B071E4E85EFF00FDBCB
:1057980045B78947171700202302F71EEF90E02F1F
:1057A80041BF93872400631AF50683298400638E1A
:1057B800090C83C709008DE383C7290003C71900B3
:1057C800A207D98F17170020231EF71A83C739009D
:1057D80017170020A304F71A171700200347071A02
:1057E80089476314F70A83C7090081CB97170020FC
:1057F8002386071803C5090051BF8D479715002058
:1058080083C5D517171500200355C517171700208E
:105818002306F716EF409014F1BF938754006318DE
:10582800F5001C4403C50700EFF06FF111B7B3078B
:105838006501C207C1831147636FF7009387C1925F
:105848009C43E38707EE9C43E38407EE2285829717
:10585800E31005EE1DA89387B400631FF500938736
:1058680041929C43E38607EC9C43E38307ECA285C3
:105878001385B4008297E9BF9387C4006310F502CB
:105888001C4483C70700E38507EA9307F00FE30189
:10589800FCEAA2856285EFD0BFA271BD9387E400C0
:1058A800E315F5FE938781929C43E38307E8DC4385
:1058B800A285E9F3B5BD3D476397E7040355440066
:1058C800E30275FF93879401E30EF5FC9387340197
:1058D800E31DF5FA9717002083D7A70A639E4701AF
:1058E800938781929C43E38507E4DC43E38207E4E2
:1058F800A28513853401BDBF938701939C43E38937
:1059080007E29C43E5B71307E003E390E7F8834712
:10591800240005476396E70E83476400138DC19101
:10592800F1E383270D00D5CB03CC0700A14903453C
:105938007400930C8400E685EFE03FFA8347440146
:10594800A303A400835804010358E4000357440048
:105958002A86034534003EC283572401E686E28541
:105968003EC0CE87EFF04FCE8347340095E7DD4742
:10597800835804010358E4008346740083554400A7
:105988003EC283572401668705463EC06285CE879E
:10599800EF60400CA301A40083270D0081C71145C7
:1059A800EFF07FA503C5C193E30405D883C5D19360
:1059B800EFE03FBCE30E05D683463400930710039F
:1059C800638AF600035644004E8783C5C193368523
:1059D800EFE05FC4238E0192A1BB171C0020034C8B
:1059E8001CFAA9B79387C1929C43171C0020034C4B
:1059F8001CF991498DDFDC439DDB0145829705BF8A
:105A08002947639DE70A83476400938CC191C9EBDA
:105A180083A70C00C9C303CC0700A1490345740040
:105A2800130D8400937725001376150089E7EA851E
:105A3800EFE0BFEA2A8683470402A303C400835821
:105A4800C4010358A40103574400034534003EC26F
:105A58008357E401EA86E2853EC0CE87EFF0CFBEE9
:105A68008347340095E7DD478358C4010358A401F0
:105A780083467400835544003EC28357E4016A8715
:105A880005463EC06285CE87EF50D07CA301A400B6
:105A980083A70C0021B7171C0020034C5CEEB5BF90
:105AA8009387C1929C43171C0020034C5CED9149DD
:105AB800B5D7DC43A5D7014582978DB70947639DC4
:105AC800E700938741929C43E38407C6DC43E38164
:105AD80007C622858297A9B92D476399E70093875E
